{
  "address": "0xf3b4029c8bbFA3fD2f90E1DC934C880e7aDA80cF",
  "abi": [
    {
      "inputs": [
        {
          "internalType": "address",
          "name": "exampleExternalContractAddress",
          "type": "address"
        }
      ],
      "stateMutability": "nonpayable",
      "type": "constructor"
    },
    {
      "anonymous": false,
      "inputs": [
        {
          "indexed": false,
          "internalType": "address",
          "name": "",
          "type": "address"
        },
        {
          "indexed": false,
          "internalType": "uint256",
          "name": "",
          "type": "uint256"
        }
      ],
      "name": "Stake",
      "type": "event"
    },
    {
      "inputs": [
        {
          "internalType": "address",
          "name": "",
          "type": "address"
        }
      ],
      "name": "balances",
      "outputs": [
        {
          "internalType": "uint256",
          "name": "",
          "type": "uint256"
        }
      ],
      "stateMutability": "view",
      "type": "function"
    },
    {
      "inputs": [],
      "name": "deadline",
      "outputs": [
        {
          "internalType": "uint256",
          "name": "",
          "type": "uint256"
        }
      ],
      "stateMutability": "view",
      "type": "function"
    },
    {
      "inputs": [],
      "name": "exampleExternalContract",
      "outputs": [
        {
          "internalType": "contract ExampleExternalContract",
          "name": "",
          "type": "address"
        }
      ],
      "stateMutability": "view",
      "type": "function"
    },
    {
      "inputs": [],
      "name": "execute",
      "outputs": [],
      "stateMutability": "nonpayable",
      "type": "function"
    },
    {
      "inputs": [],
      "name": "openForStake",
      "outputs": [
        {
          "internalType": "bool",
          "name": "",
          "type": "bool"
        }
      ],
      "stateMutability": "view",
      "type": "function"
    },
    {
      "inputs": [],
      "name": "openForWithdraw",
      "outputs": [
        {
          "internalType": "bool",
          "name": "",
          "type": "bool"
        }
      ],
      "stateMutability": "view",
      "type": "function"
    },
    {
      "inputs": [],
      "name": "receive",
      "outputs": [],
      "stateMutability": "nonpayable",
      "type": "function"
    },
    {
      "inputs": [],
      "name": "stake",
      "outputs": [],
      "stateMutability": "payable",
      "type": "function"
    },
    {
      "inputs": [],
      "name": "threshold",
      "outputs": [
        {
          "internalType": "uint256",
          "name": "",
          "type": "uint256"
        }
      ],
      "stateMutability": "view",
      "type": "function"
    },
    {
      "inputs": [],
      "name": "timeLeft",
      "outputs": [
        {
          "internalType": "uint256",
          "name": "",
          "type": "uint256"
        }
      ],
      "stateMutability": "view",
      "type": "function"
    },
    {
      "inputs": [],
      "name": "withdraw",
      "outputs": [],
      "stateMutability": "nonpayable",
      "type": "function"
    }
  ],
  "transactionHash": "0xe303f587ca2be04c698b3c4ecabcf3e514e3b6d289b84945cfda5b9c332f9760",
  "args": [
    "0xD23c886aDBc18e1Df965f2F62a28a4eCa2A1904F"
  ],
  "numDeployments": 1,
  "solcInputHash": "2661be8eda3a749d1109de3de8065867",
  "bytecode": "0x6080604052610011426203f4806100a1565b6002556003805461ffff191661010117905534801561002f57600080fd5b5060405161072a38038061072a83398101604081905261004e91610073565b600080546001600160a01b0319166001600160a01b03929092169190911790556100c5565b600060208284031215610084578081fd5b81516001600160a01b038116811461009a578182fd5b9392505050565b600082198211156100c057634e487b7160e01b81526011600452602481fd5b500190565b610656806100d46000396000f3fe60806040526004361061009c5760003560e01c806342cde4e81161006457806342cde4e81461012b57806361461954146101475780636b1a91ee1461015c5780639876a6431461018b5780639f75f227146101a5578063a3e76c0f146101dd57600080fd5b80631300a6d1146100a157806327e235e3146100c957806329dcb0cf146100f65780633a4b66f11461010c5780633ccfd60b14610116575b600080fd5b3480156100ad57600080fd5b506100b66101f2565b6040519081526020015b60405180910390f35b3480156100d557600080fd5b506100b66100e43660046105ad565b60016020526000908152604090205481565b34801561010257600080fd5b506100b660025481565b610114610217565b005b34801561012257600080fd5b50610114610318565b34801561013757600080fd5b506100b6670de0b6b3a764000081565b34801561015357600080fd5b506101146104cf565b34801561016857600080fd5b5060035461017b90610100900460ff1681565b60405190151581526020016100c0565b34801561019757600080fd5b5060035461017b9060ff1681565b3480156101b157600080fd5b506000546101c5906001600160a01b031681565b6040516001600160a01b0390911681526020016100c0565b3480156101e957600080fd5b506101146105a5565b6000600254421015610211574260025461020c91906105f3565b905090565b50600090565b600354610100900460ff166102695760405162461bcd60e51b81526020600482015260136024820152724c61207265636f6c656374612073652066756560681b60448201526064015b60405180910390fd5b60025442106102ba5760405162461bcd60e51b815260206004820152601d60248201527f4c61207265636f6c656374612079612068612066696e616c697a61646f0000006044820152606401610260565b33600090815260016020526040812080543492906102d99084906105db565b9091555050604080513381523460208201527febedb8b3c678666e7f36970bc8f57abf6d8fa2e828c0da91ea5b75bf68ed101a910160405180910390a1565b336000908152600160205260409020546103745760405162461bcd60e51b815260206004820152601d60248201527f4e6f207469656e657320666f6e646f73207061726120726574697261720000006044820152606401610260565b670de0b6b3a764000047106103bf5760405162461bcd60e51b8152602060048201526011602482015270273790383ab2b232b9903932ba34b930b960791b6044820152606401610260565b60035460ff1661040a5760405162461bcd60e51b81526020600482015260166024820152754c61207265636f6c656374612079612073652066756560501b6044820152606401610260565b3360008181526001602052604080822054905190929083908381818185875af1925050503d806000811461045a576040519150601f19603f3d011682016040523d82523d6000602084013e61045f565b606091505b50509050806104bb5760405162461bcd60e51b815260206004820152602260248201527f4e6f207365207075646f207265616c697a6172206c61207472616e736163636960448201526137b760f11b6064820152608401610260565b505033600090815260016020526040812055565b6002544210156105215760405162461bcd60e51b815260206004820152601a60248201527f4c61207265636f6c6563746120736967756520616269657274610000000000006044820152606401610260565b670de0b6b3a764000047106105a35760008054906101000a90046001600160a01b03166001600160a01b031663522e1177476040518263ffffffff1660e01b81526004016000604051808303818588803b15801561057e57600080fd5b505af1158015610592573d6000803e3d6000fd5b50506003805461ffff191690555050505b565b6105a3610217565b6000602082840312156105be578081fd5b81356001600160a01b03811681146105d4578182fd5b9392505050565b600082198211156105ee576105ee61060a565b500190565b6000828210156106055761060561060a565b500390565b634e487b7160e01b600052601160045260246000fdfea26469706673582212203455097a6fbdd664b92b5560c20f50ecaecf52ce7b503ae7717d92ffc4a9a0b064736f6c63430008040033",
  "devdoc": {
    "kind": "dev",
    "methods": {},
    "version": 1
  },
  "userdoc": {
    "kind": "user",
    "methods": {},
    "version": 1
  },
  "storageLayout": {
    "storage": [
      {
        "astId": 19,
        "contract": "contracts/Staker.sol:Staker",
        "label": "exampleExternalContract",
        "offset": 0,
        "slot": "0",
        "type": "t_contract(ExampleExternalContract)12"
      },
      {
        "astId": 23,
        "contract": "contracts/Staker.sol:Staker",
        "label": "balances",
        "offset": 0,
        "slot": "1",
        "type": "t_mapping(t_address,t_uint256)"
      },
      {
        "astId": 32,
        "contract": "contracts/Staker.sol:Staker",
        "label": "deadline",
        "offset": 0,
        "slot": "2",
        "type": "t_uint256"
      },
      {
        "astId": 35,
        "contract": "contracts/Staker.sol:Staker",
        "label": "openForWithdraw",
        "offset": 0,
        "slot": "3",
        "type": "t_bool"
      },
      {
        "astId": 38,
        "contract": "contracts/Staker.sol:Staker",
        "label": "openForStake",
        "offset": 1,
        "slot": "3",
        "type": "t_bool"
      }
    ],
    "types": {
      "t_address": {
        "encoding": "inplace",
        "label": "address",
        "numberOfBytes": "20"
      },
      "t_bool": {
        "encoding": "inplace",
        "label": "bool",
        "numberOfBytes": "1"
      },
      "t_contract(ExampleExternalContract)12": {
        "encoding": "inplace",
        "label": "contract ExampleExternalContract",
        "numberOfBytes": "20"
      },
      "t_mapping(t_address,t_uint256)": {
        "encoding": "mapping",
        "key": "t_address",
        "label": "mapping(address => uint256)",
        "numberOfBytes": "32",
        "value": "t_uint256"
      },
      "t_uint256": {
        "encoding": "inplace",
        "label": "uint256",
        "numberOfBytes": "32"
      }
    }
  }
}